:100000000C945D000C9485000C9485000C94850084
:100010000C9485000C9485000C9485000C9485004C
:100020000C9485000C9485000C9485000C9485003C
:100030000C9485000C9485000C9485000C9485002C
:100040000C94F6030C9485000C94C4030C949E034A
:100050000C9485000C9485000C9485000C9485000C
:100060000C9485000C94850000000008000201003B
:100070000003040700000000000000000000000072
:10008000250028002B0000000000240027002A0083
:10009000040404040404040402020202020203032E
:1000A0000303030301020408102040800102040836
:1000B0001020010204081020E30511241FBECFEF19
:1000C000D8E0DEBFCDBF21E0A0E3B1E001C01D92CA
:1000D000A63EB207E1F711E0A0E0B1E0E2EDF0E109
:1000E00002C005900D92A033B107D9F710E0CDE51D
:1000F000D0E004C02197FE010E946F06CC35D107E5
:10010000C9F70E9440040C9467080C94000090E02A
:10011000FC01EC55FF4F249180579F4FFC018491C7
:10012000882399F090E0880F991FFC01EA57FF4F50
:10013000A591B491FC01E458FF4F859194918FB73C
:10014000F894EC91E22BEC938FBF0895AF92BF929D
:10015000CF92DF92EF92FF920F931F93CF93DF9393
:100160006C017B018B01040F151FEB015E01AE18C2
:10017000BF08C017D10759F06991D601ED91FC91E4
:100180000190F081E02DC6010995892B79F7C50111
:10019000DF91CF911F910F91FF90EF90DF90CF9063
:1001A000BF90AF900895FC01538D448D252F30E012
:1001B000842F90E0821B930B541710F0CF96089574
:1001C00001970895FC01918D828D981761F0A28DA1
:1001D000AE0FBF2FB11D5D968C91928D9F5F9F7367
:1001E000928F90E008958FEF9FEF0895FC01918D1D
:1001F000828D981731F0828DE80FF11D858D90E08A
:1002000008958FEF9FEF0895FC01918D228D892F26
:1002100090E0805C9F4F821B91098F73992708950E
:100220008FE391E00E94040121E0892B09F420E092
:10023000822F089580E090E0892B29F00E94100120
:1002400081110C9400000895FC01A48DA80FB92F12
:10025000B11DA35ABF4F2C91848D90E001968F73EE
:100260009927848FA689B7892C93A089B1898C910D
:10027000837080648C93938D848D981306C002885C
:10028000F389E02D80818F7D80830895EF92FF9226
:100290000F931F93CF93DF93EC0181E0888F9B8DA9
:1002A0008C8D98131AC0E889F989808185FF15C063
:1002B0009FB7F894EE89FF896083E889F989808186
:1002C0008370806480839FBF81E090E0DF91CF9155
:1002D0001F910F91FF90EF900895F62E0B8D10E077
:1002E0000F5F1F4F0F731127E02E8C8D8E110CC0E6
:1002F0000FB607FCFACFE889F989808185FFF5CF31
:10030000CE010E942401F1CFEB8DEC0FFD2FF11DEA
:10031000E35AFF4FF0829FB7F8940B8FEA89FB896D
:1003200080818062CFCFCF93DF93EC01888D8823CB
:10033000B9F0AA89BB89E889F9898C9185FD03C048
:10034000808186FD0DC00FB607FCF7CF8C9185FF2D
:10035000F2CF808185FFEDCFCE010E942401E9CF4D
:10036000DF91CF91089590E0FC01E859FF4F24916F
:10037000FC01EC55FF4F3491FC01E057FF4FE49135
:10038000EE23C9F0222339F0233001F1A8F4213003
:1003900019F1223029F1F0E0EE0FFF1FE458FF4F72
:1003A000A591B4918FB7F894EC91611126C0309566
:1003B0003E233C938FBF08952730A9F02830C9F021
:1003C000243049F7809180008F7D03C080918000A8
:1003D0008F7780938000DFCF84B58F7784BDDBCFAC
:1003E00084B58F7DFBCF8091B0008F778093B00074
:1003F000D2CF8091B0008F7DF9CF3E2BDACF3FB7BF
:10040000F89480913B0190913C01A0913D01B09105
:100410003E0126B5A89B05C02F3F19F00196A11DEE
:10042000B11D3FBFBA2FA92F982F8827BC01CD013E
:10043000620F711D811D911D42E0660F771F881F9D
:10044000991F4A95D1F708958F929F92AF92BF92CC
:10045000CF92DF92EF92FF924B015C010E94FF016D
:100460006B017C010E94FF016C197D098E099F09B7
:10047000683E734081059105A8F321E0821A910836
:10048000A108B10888EEC80E83E0D81EE11CF11C5B
:1004900081149104A104B10429F7FF90EF90DF903B
:1004A000CF90BF90AF909F908F9008950F931F9320
:1004B000CF93DF93082F60E085E00E94B301C7E08F
:1004C000D0E010E060E087E00E94B301B8010C2E9C
:1004D00002C0759567950A94E2F7617086E00E9404
:1004E000B30161E087E00E94B301219758F761E012
:1004F00085E0DF91CF911F910F910C94B301EF92A2
:10050000FF920F931F93CF93DF93EC017B018A013E
:1005100088819981009729F02A813B81241735072A
:1005200088F4B8016F5F7F4F0E949A07009791F09F
:10053000998388831B830A832C813D81232B11F4AB
:10054000FC0110821D830C83B701888199810E9470
:1005500060080CC088819981009711F00E941107F2
:10056000198218821D821C821B821A82CE01DF91A1
:10057000CF911F910F91FF90EF9008950F931F93CC
:10058000CF93DF93082F81E00E945602D02FD07FB7
:10059000CD2FC1608C2F0E9456028D2F83600E9448
:1005A00056028C2F0E945602CBE8D1E0CE01019773
:1005B000F1F780E1089F80011124102F1160812F35
:1005C0000E945602802F83600E945602812F0E9453
:1005D00056022197F1F7DF91CF911F910F91089566
:1005E0000F931F93CF93DF938C01D0E0C0E0F8010D
:1005F00084819581C817D90770F480819181009713
:1006000041F08C0F9D1FFC0180810E94BE0221964B
:10061000EECF80E0FACFDF91CF911F910F91089537
:100620000F931F93CF93DF93182F80E00E94560201
:10063000C12FC07F8C2F0E9456028C2F82600E9497
:1006400056028C2F0E945602CBE8D1E0CE010197D2
:10065000F1F7012F0295007F802F0E94560220E1C2
:10066000129FC001112482600E945602802F0E94B6
:1006700056022197F1F7DF91CF911F910F910895C5
:10068000EF92FF920F931F93CF93DF938091E0013E
:100690009091E1012AE030E0B9010E944706C0E3F1
:1006A000C80FC0933501D0E3D60FD09334018091A9
:1006B000DE019091DF01B9010E94470610E3180F97
:1006C0001093330100E3060F009332018091DC01A7
:1006D0009091DD01B9010E94470690E3F92EF80ED2
:1006E000F092310120E3E22EE60EE092300186EC3A
:1006F0000E94100361E070E080E090E00E9424021C
:100700008E2D0E94BE028F2D0E94BE028AE30E949F
:10071000BE02802F0E94BE02812F0E94BE028AE389
:100720000E94BE028D2F0E94BE028C2FDF91CF91BE
:100730001F910F91FF90EF900C94BE021F920F92A9
:100740000FB60F9211242F933F934F935F936F93A4
:100750007F938F939F93AF93BF93EF93FF938FE319
:1007600091E00E942401FF91EF91BF91AF919F9181
:100770008F917F916F915F914F913F912F910F904A
:100780000FBE0F901F9018951F920F920FB60F92E9
:1007900011242F938F939F93EF93FF93E0914F0139
:1007A000F09150018081E0915501F091560182FD58
:1007B0001BC09081809158018F5F8F7320915901E8
:1007C000821741F0E0915801F0E0E15CFE4F958F17
:1007D00080935801FF91EF919F918F912F910F90EE
:1007E0000FBE0F901F9018958081F4CF1F920F922B
:1007F0000FB60F9211242F933F938F939F93AF9334
:10080000BF938091370190913801A0913901B09147
:100810003A013091360123E0230F2D3758F5019628
:10082000A11DB11D209336018093370190933801AB
:10083000A0933901B0933A0180913B0190913C0122
:10084000A0913D01B0913E010196A11DB11D809383
:100850003B0190933C01A0933D01B0933E01BF91B9
:10086000AF919F918F913F912F910F900FBE0F905D
:100870001F90189526E8230F0296A11DB11DD2CF17
:10088000CF93DF9300D000D000D0CDB7DEB77894FF
:1008900084B5826084BD84B5816084BD85B5826085
:1008A00085BD85B5816085BD80916E008160809336
:1008B0006E0010928100809181008260809381009F
:1008C00080918100816080938100809180008160AF
:1008D000809380008091B10084608093B10080910A
:1008E000B00081608093B00080917A008460809332
:1008F0007A0080917A00826080937A0080917A00F9
:10090000816080937A0080917A00806880937A0079
:100910001092C100E0914F01F091500182E080837C
:10092000E0914B01F0914C011082E0914D01F0916A
:100930004E018FEC808310925701E0915301F091AA
:10094000540186E08083E0915101F0915201808151
:1009500080618083E0915101F09152018081886033
:100960008083E0915101F091520180818068808301
:10097000E0915101F091520180818F7D808385E06B
:100980000E94870087E00E94870086E00E9487001F
:1009900080E30E94560282E30E94560287E2E82E1C
:1009A000F12CC7010197F1F780E30E94560203EB97
:1009B00011E0C8010197F1F780E30E94560282E33B
:1009C0000E945602C7010197F1F780E30E94560288
:1009D000C8010197F1F780E30E94560282E30E946A
:1009E0005602C7010197F1F780E30E945602C80141
:1009F0000197F1F780E20E94560282E20E945602BD
:100A0000C7010197F1F780E20E945602C8010197E1
:100A1000F1F788E20E94100362E070E080E090E06D
:100A20000E94240281E00E94100362E070E080E0F6
:100A300090E00E94240288E20E94100362E070E0CD
:100A400080E090E00E9424028CE00E94100362E0AB
:100A500070E080E090E00E94240286E00E94100393
:100A600062E070E080E090E00E94240262E370E0C7
:100A700080E090E00E94240280E80E94100361E080
:100A800070E080E090E00E9424021A8219821C82A9
:100A90001B821E821D8240E150E068E171E0CE01C0
:100AA00001960E947F02CE0101960E94F002898188
:100AB0009A81009711F00E9411076AE070E080E0CF
:100AC00090E00E94240280EC0E94100361E070E03C
:100AD00080E090E00E9424021A8219821C821B820C
:100AE0001E821D8246E050E069E271E0CE0101966F
:100AF0000E947F02CE0101960E94F00289819A81B4
:100B0000009711F00E9411076AE070E080E090E029
:100B10000E94240282E190E09093DD018093DC0149
:100B20008AE190E09093DF018093DE011092E10171
:100B30001092E0010E94400300E010E08091E0018B
:100B40009091E10101968C339105B1F09093E10110
:100B50008093E0010E94400368EE73E080E090E043
:100B60000E9424020115110549F30E9410018823F7
:100B700029F30E940000E2CF1092E1011092E001FF
:100B80008091DE019091DF0101968C33910529F06F
:100B90009093DF018093DE01DDCF1092DF01109290
:100BA000DE018091DC019091DD0101968831910593
:100BB00029F09093DD018093DC01CCCF1092DD0110
:100BC0001092DC01C7CFEFE3F1E01382128288EECE
:100BD00093E0A0E0B0E084839583A683B7838AE0A6
:100BE00091E09183808385EC90E09587848784EC05
:100BF00090E09787868780EC90E0918B808B81ECEA
:100C000090E0938B828B82EC90E0958B848B86ECCA
:100C100090E0978B868B118E128E138E148E089512
:100C20002F923F924F925F926F927F928F929F92FC
:100C3000AF92BF92CF92DF92EF92FF920F931F93EA
:100C4000CF93DF93CDB7DEB7CA1BDB0B0FB6F8949B
:100C5000DEBF0FBECDBF09942A88398848885F84DB
:100C60006E847D848C849B84AA84B984C884DF804C
:100C7000EE80FD800C811B81AA81B981CE0FD11D30
:100C80000FB6F894DEBF0FBECDBFED01089597FB00
:100C9000072E16F4009407D077FD09D00E945B065A
:100CA00007FC05D03EF4909581959F4F089570956F
:100CB00061957F4F0895AA1BBB1B51E107C0AA1F76
:100CC000BB1FA617B70710F0A61BB70B881F991FED
:100CD0005A95A9F780959095BC01CD010895EE0F26
:100CE000FF1F0590F491E02D09940F931F93CF936C
:100CF000DF938230910510F482E090E0E091E4010E
:100D0000F091E50130E020E0B0E0A0E0309799F408
:100D10002115310509F44AC0281B390B243031054F
:100D2000D8F58A819B816115710589F1FB01938357
:100D30008283FE0111C040815181028113814817D5
:100D40005907E0F04817590799F4109761F0129687
:100D50000C93129713961C933296CF01DF91CF918B
:100D60001F910F9108950093E4011093E501F4CFD2
:100D70002115310551F04217530738F0A901DB0165
:100D80009A01BD01DF01F801C1CFEF01F9CF9093C6
:100D9000E5018093E401CDCFFE01E20FF31F8193C3
:100DA00091932250310939832883D7CF2091E201D2
:100DB0003091E301232B41F4209102013091030192
:100DC0003093E3012093E201209100013091010171
:100DD0002115310541F42DB73EB7409104015091E2
:100DE0000501241B350BE091E201F091E301E217CC
:100DF000F307A0F42E1B3F0B2817390778F0AC013E
:100E00004E5F5F4F2417350748F04E0F5F1F50931A
:100E1000E3014093E201819391939FCFF0E0E0E002
:100E20009CCFCF93DF930097E9F0FC0132971382B8
:100E30001282A091E401B091E501ED0130E020E0E3
:100E40001097A1F420813181820F931F2091E2013C
:100E50003091E3012817390709F061C0F093E301ED
:100E6000E093E201DF91CF910895EA01CE17DF0709
:100E7000E8F54A815B819E0141155105B1F7E90111
:100E8000FB83EA8349915991C40FD51FEC17FD07E5
:100E900061F4808191810296840F951FE901998305
:100EA0008883828193819B838A83F0E0E0E01296BD
:100EB0008D919C9113970097B9F52D913C911197C5
:100EC000CD010296820F931F2091E2013091E30140
:100ED0002817390739F6309751F51092E50110922D
:100EE000E401B093E301A093E201BCCFD383C283BA
:100EF00040815181840F951FC817D90761F44E5F57
:100F00005F4F88819981480F591F518340838A819F
:100F10009B81938382832115310509F0B0CFF09333
:100F2000E501E093E4019ECFFD01DC01C0CF138217
:100F30001282D7CFB0E0A0E0E0EAF7E00C9412060E
:100F40008C01009751F4CB010E9475068C01C801F9
:100F5000CDB7DEB7E0E10C942E06FC01E60FF71FDB
:100F60009C0122503109E217F30708F49DC0D90112
:100F7000CD91DC911197C617D70798F0C530D105F0
:100F800030F3CE0104978617970708F3C61BD70BDB
:100F90002297C193D1936D937C93CF010E94110747
:100FA000D6CF5B01AC1ABD0A4C018C0E9D1EA091E0
:100FB000E401B091E501512C412CF12CE12C10976A
:100FC00031F58091E2019091E3018815990509F0CE
:100FD0005CC04616570608F058C0809100019091F9
:100FE0000101009741F48DB79EB7409104015091E3
:100FF0000501841B950BE817F90708F055C0F0931D
:10100000E301E093E201F90171836083A0CF8D9148
:101010009C91119712966C90129713967C9013974F
:10102000A815B90559F56C0142E0C40ED11CCA14CB
:10103000DB0420F1AC014A195B09DA01129615971D
:1010400080F06282738251834083D9016D937C93D7
:10105000E114F10471F0D7011396FC93EE9312970B
:1010600076CF22968C0F9D1FF90191838083F30127
:10107000EFCFF093E501E093E40169CF48165906FC
:1010800008F42C017D01D3019ACFCB010E94750693
:101090007C01009749F0AE01B8010E945708C801D1
:1010A0000E941107870153CF10E000E050CFFB01F1
:1010B000DC0102C001900D9241505040D8F70895D4
:1010C000FB01DC0101900D920020E1F70895F894F6
:0210D000FFCF50
:1010D2000000E6018000000000004601A600D300E7
:1010E20093010401E200F6003C3C3C54414E505254
:1010F2004F47414D453E3E3E0054494D453A200042
:00000001FF
