:100000000C945D000C9485000C9485000C94850084
:100010000C9485000C9485000C9485000C9485004C
:100020000C9485000C9485000C9485000C9485003C
:100030000C9485000C9485000C9485000C9485002C
:100040000C941C040C9485000C94EA030C94C403D7
:100050000C9485000C9485000C9485000C9485000C
:100060000C9485000C94850000000008000201003B
:100070000003040700000000000000000000000072
:10008000250028002B0000000000240027002A0083
:10009000040404040404040402020202020203032E
:1000A0000303030301020408102040800102040836
:1000B0001020010204081020950511241FBECFEF67
:1000C000D8E0DEBFCDBF21E0A4E3B1E001C01D92C6
:1000D000AC3EB207E1F711E0A0E0B1E0EAE7F0E101
:1000E00002C005900D92A433B107D9F710E0CDE519
:1000F000D0E004C02197FE010E944306CC35D10711
:10010000C9F70E9466040C943B080C94000090E030
:10011000FC01EC55FF4F249180579F4FFC018491C7
:10012000882399F090E0880F991FFC01EA57FF4F50
:10013000A591B491FC01E458FF4F859194918FB73C
:10014000F894EC91E22BEC938FBF0895FC01538D52
:10015000448D252F30E0842F90E0821B930B5417A1
:1001600010F0CF96089501970895FC01918D828D2E
:10017000981761F0A28DAE0FBF2FB11D5D968C91C7
:10018000928D9F5F9F73928F90E008958FEF9FEF06
:100190000895FC01918D828D981731F0828DE80FC2
:1001A000F11D858D90E008958FEF9FEF0895FC017C
:1001B000918D228D892F90E0805C9F4F821B910949
:1001C0008F7399270895FC01A48DA80FB92FB11D35
:1001D000A35ABF4F2C91848D90E001968F7399277D
:1001E000848FA689B7892C93A089B1898C9183705B
:1001F00080648C93938D848D981306C00288F38954
:10020000E02D80818F7D80830895EF92FF920F9380
:100210001F93CF93DF93EC0181E0888F9B8D8C8DB2
:1002200098131AC0E889F989808185FF15C09FB7A6
:10023000F894EE89FF896083E889F9898081837069
:10024000806480839FBF81E090E0DF91CF911F9118
:100250000F91FF90EF900895F62E0B8D10E00F5F39
:100260001F4F0F731127E02E8C8D8E110CC00FB60F
:1002700007FCFACFE889F989808185FFF5CFCE01A7
:100280000E94E300F1CFEB8DEC0FFD2FF11DE35A3F
:10029000FF4FF0829FB7F8940B8FEA89FB8980812A
:1002A0008062CFCFCF93DF93EC01888D8823B9F0A4
:1002B000AA89BB89E889F9898C9185FD03C0808171
:1002C00086FD0DC00FB607FCF7CF8C9185FFF2CFEE
:1002D000808185FFEDCFCE010E94E300E9CFDF9161
:1002E000CF91089585E491E00E94D70021E0892B09
:1002F00009F420E0822F089580E090E0892B29F016
:100300000E94720181110C9400000895AF92BF9277
:10031000CF92DF92EF92FF920F931F93CF93DF93D1
:100320006C017B018B01040F151FEB015E01AE1800
:10033000BF08C017D10759F06991D601ED91FC9122
:100340000190F081E02DC6010995892B79F7C5014F
:10035000DF91CF911F910F91FF90EF90DF90CF90A1
:10036000BF90AF90089590E0FC01E859FF4F2491B1
:10037000FC01EC55FF4F3491FC01E057FF4FE49135
:10038000EE23C9F0222339F0233001F1A8F4213003
:1003900019F1223029F1F0E0EE0FFF1FE458FF4F72
:1003A000A591B4918FB7F894EC91611126C0309566
:1003B0003E233C938FBF08952730A9F02830C9F021
:1003C000243049F7809180008F7D03C080918000A8
:1003D0008F7780938000DFCF84B58F7784BDDBCFAC
:1003E00084B58F7DFBCF8091B0008F778093B00074
:1003F000D2CF8091B0008F7DF9CF3E2BDACF3FB7BF
:10040000F8948091410190914201A0914301B091F3
:10041000440126B5A89B05C02F3F19F00196A11DE8
:10042000B11D3FBFBA2FA92F982F8827BC01CD013E
:10043000620F711D811D911D42E0660F771F881F9D
:10044000991F4A95D1F708958F929F92AF92BF92CC
:10045000CF92DF92EF92FF924B015C010E94FF016D
:100460006B017C010E94FF016C197D098E099F09B7
:10047000683E734081059105A8F321E0821A910836
:10048000A108B10888EEC80E83E0D81EE11CF11C5B
:1004900081149104A104B10429F7FF90EF90DF903B
:1004A000CF90BF90AF909F908F9008950F931F9320
:1004B000CF93DF93082F60E085E00E94B30187E0CF
:1004C00090E0909335018093340110E0C0913401A5
:1004D000D0913501D7FD19C060E087E00E94B301DB
:1004E000B8010C2E02C0759567950A94E2F7617009
:1004F00086E00E94B30161E087E00E94B30121978A
:10050000D0933501C0933401E1CF61E085E0DF9104
:10051000CF911F910F910C94B301EF92FF920F9323
:100520001F93CF93DF93EC017B018A01888199812E
:10053000009729F02A813B812417350788F4B801F8
:100540006F5F7F4F0E946E07009791F099838883B9
:100550001B830A832C813D81232B11F4FC01108223
:100560001D830C83B701888199810E9434080CC0D7
:1005700088819981009711F00E94E50619821882FE
:100580001D821C821B821A82CE01DF91CF911F91A6
:100590000F91FF90EF900895CF92DF92EF92FF922C
:1005A0000F931F93CF93DF93CDB7DEB7A1970FB60D
:1005B000F894DEBF0FBECDBF182F61E08CE00E9423
:1005C000B301812F0E945602212F30E050E040E01D
:1005D00019A28E010F5D1F4F8AE0C82ED12CE12C8D
:1005E000F12CCA01B901A70196010E940D06605DB8
:1005F000F80162938F01211531054105510589F7F5
:10060000309761F001900020E9F73197AF01401B6E
:10061000510BB80185E491E00E94860142E050E070
:1006200068E171E085E491E00E9486018BE193E04E
:100630000197F1F761E08BE00E94B30160E08BE08D
:100640000E94B3018BE891E00197F1F7A1960FB6F4
:10065000F894DEBF0FBECDBFDF91CF911F910F91F8
:10066000FF90EF90DF90CF9008950F931F93CF935B
:10067000DF938C01D0E0C0E0F80184819581C81738
:10068000D90770F480819181009741F08C0F9D1FF4
:10069000FC0180810E94CC022196EECF80E0FACF4F
:1006A000DF91CF911F910F910895CF93C82F60E0F4
:1006B0008CE00E94B3018C2F0E94560262E070E031
:1006C00080E090E00E94240261E08BE00E94B30190
:1006D00060E08BE00E94B3018BE891E00197F1F7B5
:1006E000CF910895CF938091E6019091E7012AE0A0
:1006F00030E0B9010E94F905805D80933B01605DA7
:1007000060933A018091E4019091E501B9010E9462
:10071000F905805D80933901605D609338018091B7
:10072000E2019091E301B9010E94F905805D809397
:100730003701C0E3C60FC093360186EC0E94550313
:1007400061E070E080E090E00E9424028C2F0E9423
:10075000CC02809137010E94CC028AE30E94CC0235
:10076000809138010E94CC02809139010E94CC0214
:100770008AE30E94CC0280913A010E94CC028091CF
:100780003B01CF910C94CC021F920F920FB60F92A7
:1007900011242F933F934F935F936F937F938F9386
:1007A0009F93AF93BF93EF93FF9385E491E00E94F3
:1007B000E300FF91EF91BF91AF919F918F917F9156
:1007C0006F915F914F913F912F910F900FBE0F90BE
:1007D0001F9018951F920F920FB60F9211242F930E
:1007E0008F939F93EF93FF93E0915501F091560102
:1007F0008081E0915B01F0915C0182FD1BC09081E2
:1008000080915E018F5F8F7320915F01821741F0AD
:10081000E0915E01F0E0EB5BFE4F958F80935E010F
:10082000FF91EF919F918F912F910F900FBE0F909D
:100830001F9018958081F4CF1F920F920FB60F92E0
:1008400011242F933F938F939F93AF93BF938091E6
:100850003D0190913E01A0913F01B0914001309146
:100860003C0123E0230F2D3758F50196A11DB11D42
:1008700020933C0180933D0190933E01A0933F0162
:10088000B09340018091410190914201A0914301B8
:10089000B09144010196A11DB11D80934101909337
:1008A0004201A0934301B0934401BF91AF919F9146
:1008B0008F913F912F910F900FBE0F901F90189521
:1008C00026E8230F0296A11DB11DD2CFCF93DF934F
:1008D00000D000D000D0CDB7DEB7789484B5826068
:1008E00084BD84B5816084BD85B5826085BD85B5D4
:1008F000816085BD80916E00816080936E00109252
:1009000081008091810082608093810080918100CC
:10091000816080938100809180008160809380005D
:100920008091B10084608093B1008091B0008160BB
:100930008093B00080917A00846080937A008091E7
:100940007A00826080937A0080917A00816080933F
:100950007A0080917A00806880937A001092C100BA
:1009600085E00E94870087E00E94870086E00E9461
:1009700087008CE00E9487008BE00E94870060E087
:100980008BE00E94B30160E08CE00E94B30188E339
:100990000E94550362E070E080E090E00E94240233
:1009A00081E00E94550362E070E080E090E00E94E8
:1009B000240288E30E94550362E070E080E090E04A
:1009C0000E9424028CE00E94550362E070E080E007
:1009D00090E00E94240286E00E94550362E070E0ED
:1009E00080E090E00E94240262E370E080E090E00A
:1009F0000E94240280E80E94550361E070E080E0DC
:100A000090E00E9424021A8219821C821B821E829C
:100A10001D8240E150E06BE171E0CE0101960E9441
:100A20008D02CE0101960E94350389819A8100973B
:100A300011F00E94E50680EC0E94550361E070E031
:100A400080E090E00E9424021A8219821C821B829C
:100A50001E821D8246E050E06CE271E0CE010196FC
:100A60000E948D02CE0101960E94350389819A81F0
:100A7000009711F00E94E50682E190E09093E30177
:100A80008093E2018AE190E09093E5018093E40194
:100A90001092E7011092E6010E94720300E010E05C
:100AA0008091E6019091E70101968C339105B1F0B8
:100AB0009093E7018093E6010E94720368EE73E071
:100AC00080E090E00E9424020115110549F30E9484
:100AD0007201882329F30E940000E2CF1092E701FF
:100AE0001092E6018091E4019091E50101968C332A
:100AF000910529F09093E5018093E401DDCF1092F8
:100B0000E5011092E4018091E2019091E3010196E8
:100B10008831910529F09093E3018093E201CCCFD5
:100B20001092E3011092E201C7CFE5E4F1E01382F5
:100B3000128288EE93E0A0E0B0E084839583A683E0
:100B4000B7838AE091E09183808385EC90E095877C
:100B5000848784EC90E09787868780EC90E0918B87
:100B6000808B81EC90E0938B828B82EC90E0958B74
:100B7000848B86EC90E0978B868B118E128E138E71
:100B8000148E08952F923F924F925F926F927F92B0
:100B90008F929F92AF92BF92CF92DF92EF92FF928D
:100BA0000F931F93CF93DF93CDB7DEB7CA1BDB0B39
:100BB0000FB6F894DEBF0FBECDBF09942A883988DE
:100BC00048885F846E847D848C849B84AA84B984E5
:100BD000C884DF80EE80FD800C811B81AA81B981F1
:100BE000CE0FD11D0FB6F894DEBF0FBECDBFED0105
:100BF000089597FB072E16F4009407D077FD09D0CF
:100C00000E942F0607FC05D03EF4909581959F4FDA
:100C10000895709561957F4F0895A1E21A2EAA1B41
:100C2000BB1BFD010DC0AA1FBB1FEE1FFF1FA2179C
:100C3000B307E407F50720F0A21BB30BE40BF50B99
:100C4000661F771F881F991F1A9469F76095709522
:100C5000809590959B01AC01BD01CF010895AA1B21
:100C6000BB1B51E107C0AA1FBB1FA617B70710F097
:100C7000A61BB70B881F991F5A95A9F780959095C9
:100C8000BC01CD010895EE0FFF1F0590F491E02DFA
:100C900009940F931F93CF93DF938230910510F443
:100CA00082E090E0E091EA01F091EB0130E020E099
:100CB000B0E0A0E0309799F42115310509F44AC05D
:100CC000281B390B24303105D8F58A819B816115A9
:100CD000710589F1FB0193838283FE0111C040817C
:100CE00051810281138148175907E0F048175907CD
:100CF00099F4109761F012960C93129713961C9327
:100D00003296CF01DF91CF911F910F9108950093FB
:100D1000EA011093EB01F4CF2115310551F0421790
:100D2000530738F0A901DB019A01BD01DF01F80189
:100D3000C1CFEF01F9CF9093EB018093EA01CDCFC2
:100D4000FE01E20FF31F8193919322503109398301
:100D50002883D7CF2091E8013091E901232B41F47A
:100D600020910201309103013093E9012093E801C1
:100D700020910001309101012115310541F42DB779
:100D80003EB74091040150910501241B350BE091C1
:100D9000E801F091E901E217F307A0F42E1B3F0BE5
:100DA0002817390778F0AC014E5F5F4F24173507DD
:100DB00048F04E0F5F1F5093E9014093E801819383
:100DC00091939FCFF0E0E0E09CCFCF93DF9300972B
:100DD000E9F0FC01329713821282A091EA01B091EE
:100DE000EB01ED0130E020E01097A1F4208131818A
:100DF000820F931F2091E8013091E90128173907EC
:100E000009F061C0F093E901E093E801DF91CF912F
:100E10000895EA01CE17DF07E8F54A815B819E015C
:100E200041155105B1F7E901FB83EA8349915991D5
:100E3000C40FD51FEC17FD0761F4808191810296E4
:100E4000840F951FE90199838883828193819B8315
:100E50008A83F0E0E0E012968D919C9113970097C1
:100E6000B9F52D913C911197CD010296820F931FF8
:100E70002091E8013091E9012817390739F63097B8
:100E800051F51092EB011092EA01B093E901A093A1
:100E9000E801BCCFD383C28340815181840F951F69
:100EA000C817D90761F44E5F5F4F88819981480F59
:100EB000591F518340838A819B81938382832115AB
:100EC000310509F0B0CFF093EB01E093EA019ECF3A
:100ED000FD01DC01C0CF13821282D7CFB0E0A0E0C9
:100EE000E4E7F7E00C94C4058C01009751F4CB01C2
:100EF0000E9449068C01C801CDB7DEB7E0E10C9431
:100F0000E005FC01E60FF71F9C0122503109E217B2
:100F1000F30708F49DC0D901CD91DC911197C61754
:100F2000D70798F0C530D10530F3CE010497861766
:100F3000970708F3C61BD70B2297C193D1936D93E4
:100F40007C93CF010E94E506D6CF5B01AC1ABD0AA7
:100F50004C018C0E9D1EA091EA01B091EB01512C29
:100F6000412CF12CE12C109731F58091E801909102
:100F7000E9018815990509F05CC04616570608F086
:100F800058C08091000190910101009741F48DB704
:100F90009EB74091040150910501841B950BE81701
:100FA000F90708F055C0F093E901E093E801F90171
:100FB00071836083A0CF8D919C91119712966C9054
:100FC000129713967C901397A815B90559F56C01E3
:100FD00042E0C40ED11CCA14DB0420F1AC014A1952
:100FE0005B09DA011296159780F062827382518351
:100FF0004083D9016D937C93E114F10471F0D70122
:101000001396FC93EE93129776CF22968C0F9D1F2A
:10101000F90191838083F301EFCFF093EB01E0932B
:10102000EA0169CF4816590608F42C017D01D30165
:101030009ACFCB010E9449067C01009749F0AE018E
:10104000B8010E942B08C8010E94E506870153CF12
:1010500010E000E050CFFB01DC0102C001900D92D6
:1010600041505040D8F70895FB01DC0101900D92EA
:0A1070000020E1F70895F894FFCF87
:10107A000000EC0180000000000005018601A600C6
:10108A005201D700B500C9000D0A003C3C3C54414E
:10109A004E50524F47414D453E3E3E0054494D4504
:0410AA003A200000E8
:00000001FF
